:100000000C9434000C9449000C9449000C94490061
:100010000C9449000C9449000C9449000C9449003C
:100020000C9449000C9449000C9449000C9449002C
:100030000C9449000C9449000C9449000C9449001C
:100040000C9449000C9449000C9449000C9449000C
:100050000C9449000C9449000C9449000C944900FC
:100060000C9449000C94490011241FBECFEFD8E036
:10007000DEBFCDBF11E0A0E0B1E0E0E2F6E002C0FB
:1000800005900D92A233B107D9F70E948D010C940F
:100090000E030C9400001AB814B867E670E080E014
:1000A00090E00E94EA000E940001559A569A579AE1
:1000B0000E949900209A219A239A0895CF93C62FDF
:1000C000823021F0813021F06EE603C06EEB01C07A
:1000D0006BE985E00E94A400C23021F0C13021F01C
:1000E0006EE603C06EEB01C06BE986E0CF910C9425
:1000F000A400289829982B985F98089562E080E0E2
:100100000E945E005F9A299A28982B98089561E0D2
:1001100081E00E945E005F9A2B9A289829980895A2
:1001200060E082E00E945E00289A2B9A5F982998EE
:100130000895F89415BC85B5836085BD14BC84B55D
:10014000836084BD789408958630A1F484B56111EC
:1001500004C08F7384BD5E9808956F3F21F48F7340
:1001600084BD5E9A0895806884BD84B58F7B84BD0C
:1001700067BD0895853099F484B5611104C08F7C02
:1001800084BD5D9808956F3F21F48F7C84BD5D9A96
:100190000895806284BD84B58F7E84BD68BD089556
:1001A0008091C00087FFFCCF8091C6000895909198
:1001B000C00095FFFCCF8093C6000895CF93DF93D6
:1001C000EC018991882319F00E94D700FACFDF91C2
:1001D000CF9108950F931F93072F182F292F33279F
:1001E0000093C5006093C40088E18093C1008EE055
:1001F0008093C20080E091E01F910F910C94DE008B
:1002000010927C0080917C00806480937C008091BF
:100210007A00876080937A0080917A00806880936A
:100220007A0080917A00806480937A0080917A00CD
:1002300086FDFCCF8091780090917900089590918F
:100240007C00987F90937C0090917C00892B809318
:100250007C0080917A00806480937A0080917A009B
:1002600086FDFCCF80917800909179000895CF921F
:10027000DF92EF92FF921F93CF93DF93182FD62F29
:10028000C0E0C12CD12C7601CD1749F0812F0E94FE
:100290001F01C80ED91EE11CF11CCF5FF5CFC701AD
:1002A000B6010E9480026B017C016C2F70E080E03F
:1002B00090E00E9480029B01AC01C701B6010E9440
:1002C000DF010E945102CB01DF91CF911F91FF907E
:1002D000EF90DF90CF90089564E182E00E943701B3
:1002E0008935924010F480E0089582E0089564E139
:1002F00081E00E9437018935924010F480E0089532
:1003000082E0089564E180E00E94370189359240DF
:1003100010F480E0089582E008950E944B0061E0AF
:1003200081E00E945E0010E000E0F12CC6B196B1C1
:1003300086B1C1709270C92B8470C82BC1F086B190
:100340008270801721F08AE091E00E94DE0086B181
:1003500084708F1521F088E191E00E94DE0086B163
:100360008170181721F084E291E00E94DE000E9463
:100370008201E82E0E946C01D82F0E947701EE20A6
:1003800039F081110BC0D11109C00E947E0006C056
:10039000882381F0D11102C00E948700CC2331F262
:1003A0000E946C01F82E0E947701082F0E948201A2
:1003B000182FBCCFDD2391F30E949000EFCF0E9455
:1003C000F3010C94D4020E94CD0258F00E94C602A0
:1003D00040F029F45F3F29F00C94BD0251110C94B8
:1003E00008030C94C3020E94E50268F39923B1F359
:1003F000552391F3951B550BBB27AA27621773074B
:10040000840738F09F5F5F4F220F331F441FAA1FDE
:10041000A9F335D00E2E3AF0E0E832D0915050409A
:10042000E695001CCAF72BD0FE2F29D0660F771F48
:10043000881FBB1F261737074807AB07B0E809F02E
:10044000BB0B802DBF01FF2793585F4F3AF09E3FB3
:10045000510578F00C94BD020C9408035F3FE4F35F
:10046000983ED4F3869577956795B795F7959F5FF6
:10047000C9F7880F911D9695879597F90895E1E042
:10048000660F771F881FBB1F621773078407BA07A1
:1004900020F0621B730B840BBA0BEE1F88F7E095FC
:1004A00008950E94ED0288F09F5798F0B92F992780
:1004B000B751B0F0E1F0660F771F881F991F1AF04F
:1004C000BA95C9F714C0B13091F00E940703B1E0AA
:1004D00008950C940703672F782F8827B85F39F0A9
:1004E000B93FCCF3869577956795B395D9F73EF4E8
:1004F00090958095709561957F4F8F4F9F4F089590
:10050000E89409C097FB3EF49095809570956195AD
:100510007F4F8F4F9F4F9923A9F0F92F96E9BB2763
:100520009395F695879577956795B795F111F8CFDF
:10053000FAF4BB0F11F460FF1BC06F5F7F4F8F4F4A
:100540009F4F16C0882311F096E911C0772321F040
:100550009EE8872F762F05C0662371F096E8862FD8
:1005600070E060E02AF09A95660F771F881FDAF72F
:10057000880F9695879597F9089597F99F6780E872
:1005800070E060E008959FEF80EC089500240A94E5
:100590001616170618060906089500240A9412165E
:1005A0001306140605060895092E0394000C11F491
:1005B000882352F0BB0F40F4BF2B11F460FF04C03E
:1005C0006F5F7F4F8F4F9F4F089557FD9058440F97
:1005D000551F59F05F3F71F04795880F97FB991FA2
:1005E00061F09F3F79F0879508951216130614065F
:1005F000551FF2CF4695F1DF08C0161617061806EC
:10060000991FF1CF86957105610508940895E894C6
:10061000BB2766277727CB0197F90895F894FFCF7A
:100620003C285E5F5E293E0A00004C617374206DB9
:100630006964646C650A0A004C617374206C6566B9
:10064000740A0A004C6173742072696768740A0A3C
:020650000000A8
:00000001FF
